{
  "_format": "hh-sol-artifact-1",
  "contractName": "Loterie",
  "sourceName": "contracts/Loterie.sol",
  "abi": [
    {
      "inputs": [],
      "stateMutability": "nonpayable",
      "type": "constructor"
    },
    {
      "inputs": [],
      "name": "gagnant",
      "outputs": [
        {
          "internalType": "address",
          "name": "",
          "type": "address"
        }
      ],
      "stateMutability": "view",
      "type": "function"
    },
    {
      "inputs": [],
      "name": "lancerTirage",
      "outputs": [],
      "stateMutability": "nonpayable",
      "type": "function"
    },
    {
      "inputs": [],
      "name": "owner",
      "outputs": [
        {
          "internalType": "address",
          "name": "",
          "type": "address"
        }
      ],
      "stateMutability": "view",
      "type": "function"
    },
    {
      "inputs": [
        {
          "internalType": "uint256",
          "name": "",
          "type": "uint256"
        }
      ],
      "name": "participants",
      "outputs": [
        {
          "internalType": "address",
          "name": "",
          "type": "address"
        }
      ],
      "stateMutability": "view",
      "type": "function"
    },
    {
      "inputs": [],
      "name": "participer",
      "outputs": [],
      "stateMutability": "payable",
      "type": "function"
    },
    {
      "inputs": [],
      "name": "recupererGagnant",
      "outputs": [
        {
          "internalType": "address",
          "name": "",
          "type": "address"
        }
      ],
      "stateMutability": "view",
      "type": "function"
    },
    {
      "inputs": [],
      "name": "recupererParticipants",
      "outputs": [
        {
          "internalType": "address[]",
          "name": "",
          "type": "address[]"
        }
      ],
      "stateMutability": "view",
      "type": "function"
    },
    {
      "stateMutability": "payable",
      "type": "receive"
    }
  ],
  "bytecode": "0x6080604052348015600f57600080fd5b50336000806101000a81548173ffffffffffffffffffffffffffffffffffffffff021916908373ffffffffffffffffffffffffffffffffffffffff160217905550610b5b8061005f6000396000f3fe6080604052600436106100745760003560e01c80635df1b3f21161004e5780635df1b3f2146101135780637f719f4a1461011d5780638da5cb5b14610134578063bf0ba25e1461015f5761007b565b806327dbc4d61461008057806335c1d349146100ab578063427f822b146100e85761007b565b3661007b57005b600080fd5b34801561008c57600080fd5b5061009561018a565b6040516100a2919061061a565b60405180910390f35b3480156100b757600080fd5b506100d260048036038101906100cd9190610670565b6101b4565b6040516100df919061061a565b60405180910390f35b3480156100f457600080fd5b506100fd6101f3565b60405161010a919061061a565b60405180910390f35b61011b610219565b005b34801561012957600080fd5b506101326102c8565b005b34801561014057600080fd5b506101496104b3565b604051610156919061061a565b60405180910390f35b34801561016b57600080fd5b506101746104d7565b604051610181919061075b565b60405180910390f35b6000600260009054906101000a900473ffffffffffffffffffffffffffffffffffffffff16905090565b600181815481106101c457600080fd5b906000526020600020016000915054906101000a900473ffffffffffffffffffffffffffffffffffffffff1681565b600260009054906101000a900473ffffffffffffffffffffffffffffffffffffffff1681565b66038d7ea4c68000341015610263576040517f08c379a000000000000000000000000000000000000000000000000000000000815260040161025a90610800565b60405180910390fd5b6001339080600181540180825580915050600190039060005260206000200160009091909190916101000a81548173ffffffffffffffffffffffffffffffffffffffff021916908373ffffffffffffffffffffffffffffffffffffffff160217905550565b60008054906101000a900473ffffffffffffffffffffffffffffffffffffffff1673ffffffffffffffffffffffffffffffffffffffff163373ffffffffffffffffffffffffffffffffffffffff1614610356576040517f08c379a000000000000000000000000000000000000000000000000000000000815260040161034d90610892565b60405180910390fd5b60006001805490501161039e576040517f08c379a0000000000000000000000000000000000000000000000000000000008152600401610395906108fe565b60405180910390fd5b60006001805490506103ae610565565b6103b8919061094d565b9050600181815481106103ce576103cd61097e565b5b9060005260206000200160009054906101000a900473ffffffffffffffffffffffffffffffffffffffff16600260006101000a81548173ffffffffffffffffffffffffffffffffffffffff021916908373ffffffffffffffffffffffffffffffffffffffff160217905550600260009054906101000a900473ffffffffffffffffffffffffffffffffffffffff1673ffffffffffffffffffffffffffffffffffffffff166108fc479081150290604051600060405180830381858888f193505050501580156104a1573d6000803e3d6000fd5b50600160006104b0919061059b565b50565b60008054906101000a900473ffffffffffffffffffffffffffffffffffffffff1681565b6060600180548060200260200160405190810160405280929190818152602001828054801561055b57602002820191906000526020600020905b8160009054906101000a900473ffffffffffffffffffffffffffffffffffffffff1673ffffffffffffffffffffffffffffffffffffffff1681526020019060010190808311610511575b5050505050905090565b60004442600160405160200161057d93929190610aec565b6040516020818303038152906040528051906020012060001c905090565b50805460008255906000526020600020908101906105b991906105bc565b50565b5b808211156105d55760008160009055506001016105bd565b5090565b600073ffffffffffffffffffffffffffffffffffffffff82169050919050565b6000610604826105d9565b9050919050565b610614816105f9565b82525050565b600060208201905061062f600083018461060b565b92915050565b600080fd5b6000819050919050565b61064d8161063a565b811461065857600080fd5b50565b60008135905061066a81610644565b92915050565b60006020828403121561068657610685610635565b5b60006106948482850161065b565b91505092915050565b600081519050919050565b600082825260208201905092915050565b6000819050602082019050919050565b6106d2816105f9565b82525050565b60006106e483836106c9565b60208301905092915050565b6000602082019050919050565b60006107088261069d565b61071281856106a8565b935061071d836106b9565b8060005b8381101561074e57815161073588826106d8565b9750610740836106f0565b925050600181019050610721565b5085935050505092915050565b6000602082019050818103600083015261077581846106fd565b905092915050565b600082825260208201905092915050565b7f566f757320646576657a20656e766f796572206175206d6f696e7320302e303060008201527f3120657468657220706f75722070617274696369706572000000000000000000602082015250565b60006107ea60378361077d565b91506107f58261078e565b604082019050919050565b60006020820190508181036000830152610819816107dd565b9050919050565b7f416363657320726566757365203a20566f7573206e276574657320706173206c60008201527f652070726f707269657461697265000000000000000000000000000000000000602082015250565b600061087c602e8361077d565b915061088782610820565b604082019050919050565b600060208201905081810360008301526108ab8161086f565b9050919050565b7f417563756e207061727469636970616e742064616e73206c6520746972616765600082015250565b60006108e860208361077d565b91506108f3826108b2565b602082019050919050565b60006020820190508181036000830152610917816108db565b9050919050565b7f4e487b7100000000000000000000000000000000000000000000000000000000600052601260045260246000fd5b60006109588261063a565b91506109638361063a565b9250826109735761097261091e565b5b828206905092915050565b7f4e487b7100000000000000000000000000000000000000000000000000000000600052603260045260246000fd5b6000819050919050565b6109c86109c38261063a565b6109ad565b82525050565b600081549050919050565b600081905092915050565b60008190508160005260206000209050919050565b610a02816105f9565b82525050565b6000610a1483836109f9565b60208301905092915050565b60008160001c9050919050565b600073ffffffffffffffffffffffffffffffffffffffff82169050919050565b6000610a60610a5b83610a20565b610a2d565b9050919050565b6000610a738254610a4d565b9050919050565b6000600182019050919050565b6000610a92826109ce565b610a9c81856109d9565b9350610aa7836109e4565b8060005b83811015610adf57610abc82610a67565b610ac68882610a08565b9750610ad183610a7a565b925050600181019050610aab565b5085935050505092915050565b6000610af882866109b7565b602082019150610b0882856109b7565b602082019150610b188284610a87565b915081905094935050505056fea2646970667358221220c7a5d9a71725b776c7631839e2def9187f1edc93b46b4123f6769591cdc98e3d64736f6c634300081b0033",
  "linkReferences": {},
  "deployedLinkReferences": {}
}