{
  "_format": "hh-sol-artifact-1",
  "contractName": "Loterie",
  "sourceName": "contracts/Loterie.sol",
  "abi": [
    {
      "inputs": [
        {
          "internalType": "address",
          "name": "_vrfCoordinator",
          "type": "address"
        },
        {
          "internalType": "address",
          "name": "_linkToken",
          "type": "address"
        },
        {
          "internalType": "bytes32",
          "name": "_keyHash",
          "type": "bytes32"
        },
        {
          "internalType": "uint256",
          "name": "_fee",
          "type": "uint256"
        }
      ],
      "stateMutability": "nonpayable",
      "type": "constructor"
    },
    {
      "inputs": [],
      "name": "dernierTirage",
      "outputs": [
        {
          "internalType": "uint256",
          "name": "",
          "type": "uint256"
        }
      ],
      "stateMutability": "view",
      "type": "function"
    },
    {
      "inputs": [],
      "name": "gagnant",
      "outputs": [
        {
          "internalType": "address",
          "name": "",
          "type": "address"
        }
      ],
      "stateMutability": "view",
      "type": "function"
    },
    {
      "inputs": [],
      "name": "lancerTirage",
      "outputs": [
        {
          "internalType": "bytes32",
          "name": "requestId",
          "type": "bytes32"
        }
      ],
      "stateMutability": "nonpayable",
      "type": "function"
    },
    {
      "inputs": [],
      "name": "owner",
      "outputs": [
        {
          "internalType": "address",
          "name": "",
          "type": "address"
        }
      ],
      "stateMutability": "view",
      "type": "function"
    },
    {
      "inputs": [
        {
          "internalType": "uint256",
          "name": "",
          "type": "uint256"
        }
      ],
      "name": "participants",
      "outputs": [
        {
          "internalType": "address",
          "name": "",
          "type": "address"
        }
      ],
      "stateMutability": "view",
      "type": "function"
    },
    {
      "inputs": [],
      "name": "participer",
      "outputs": [],
      "stateMutability": "payable",
      "type": "function"
    },
    {
      "inputs": [
        {
          "internalType": "bytes32",
          "name": "requestId",
          "type": "bytes32"
        },
        {
          "internalType": "uint256",
          "name": "randomness",
          "type": "uint256"
        }
      ],
      "name": "rawFulfillRandomness",
      "outputs": [],
      "stateMutability": "nonpayable",
      "type": "function"
    },
    {
      "inputs": [],
      "name": "recupererGagnant",
      "outputs": [
        {
          "internalType": "address",
          "name": "",
          "type": "address"
        }
      ],
      "stateMutability": "view",
      "type": "function"
    },
    {
      "inputs": [],
      "name": "recupererParticipants",
      "outputs": [
        {
          "internalType": "address[]",
          "name": "",
          "type": "address[]"
        }
      ],
      "stateMutability": "view",
      "type": "function"
    },
    {
      "stateMutability": "payable",
      "type": "receive"
    }
  ],
  "bytecode": "0x60c060405234801561001057600080fd5b50604051611460380380611460833981810160405281019061003291906101c5565b83838173ffffffffffffffffffffffffffffffffffffffff1660a08173ffffffffffffffffffffffffffffffffffffffff16815250508073ffffffffffffffffffffffffffffffffffffffff1660808173ffffffffffffffffffffffffffffffffffffffff1681525050505033600160006101000a81548173ffffffffffffffffffffffffffffffffffffffff021916908373ffffffffffffffffffffffffffffffffffffffff16021790555081600581905550806006819055505050505061022c565b600080fd5b600073ffffffffffffffffffffffffffffffffffffffff82169050919050565b6000610126826100fb565b9050919050565b6101368161011b565b811461014157600080fd5b50565b6000815190506101538161012d565b92915050565b6000819050919050565b61016c81610159565b811461017757600080fd5b50565b60008151905061018981610163565b92915050565b6000819050919050565b6101a28161018f565b81146101ad57600080fd5b50565b6000815190506101bf81610199565b92915050565b600080600080608085870312156101df576101de6100f6565b5b60006101ed87828801610144565b94505060206101fe87828801610144565b935050604061020f8782880161017a565b9250506060610220878288016101b0565b91505092959194509250565b60805160a05161120161025f6000396000818161054601526106ae0152600081816103e3015261067201526112016000f3fe60806040526004361061008a5760003560e01c80635df1b3f2116100595780635df1b3f2146101545780637f719f4a1461015e5780638da5cb5b1461018957806394985ddd146101b4578063bf0ba25e146101dd57610091565b80631545ad8a1461009657806327dbc4d6146100c157806335c1d349146100ec578063427f822b1461012957610091565b3661009157005b600080fd5b3480156100a257600080fd5b506100ab610208565b6040516100b89190610994565b60405180910390f35b3480156100cd57600080fd5b506100d661020e565b6040516100e391906109f0565b60405180910390f35b3480156100f857600080fd5b50610113600480360381019061010e9190610a3c565b610238565b60405161012091906109f0565b60405180910390f35b34801561013557600080fd5b5061013e610277565b60405161014b91906109f0565b60405180910390f35b61015c61029d565b005b34801561016a57600080fd5b5061017361034c565b6040516101809190610a82565b60405180910390f35b34801561019557600080fd5b5061019e61051e565b6040516101ab91906109f0565b60405180910390f35b3480156101c057600080fd5b506101db60048036038101906101d69190610ac9565b610544565b005b3480156101e957600080fd5b506101f26105e0565b6040516101ff9190610bc7565b60405180910390f35b60045481565b6000600360009054906101000a900473ffffffffffffffffffffffffffffffffffffffff16905090565b6002818154811061024857600080fd5b906000526020600020016000915054906101000a900473ffffffffffffffffffffffffffffffffffffffff1681565b600360009054906101000a900473ffffffffffffffffffffffffffffffffffffffff1681565b662386f26fc100003410156102e7576040517f08c379a00000000000000000000000000000000000000000000000000000000081526004016102de90610c6c565b60405180910390fd5b6002339080600181540180825580915050600190039060005260206000200160009091909190916101000a81548173ffffffffffffffffffffffffffffffffffffffff021916908373ffffffffffffffffffffffffffffffffffffffff160217905550565b6000600160009054906101000a900473ffffffffffffffffffffffffffffffffffffffff1673ffffffffffffffffffffffffffffffffffffffff163373ffffffffffffffffffffffffffffffffffffffff16146103de576040517f08c379a00000000000000000000000000000000000000000000000000000000081526004016103d590610cfe565b60405180910390fd5b6006547f000000000000000000000000000000000000000000000000000000000000000073ffffffffffffffffffffffffffffffffffffffff166370a08231306040518263ffffffff1660e01b815260040161043a91906109f0565b602060405180830381865afa158015610457573d6000803e3d6000fd5b505050506040513d601f19601f8201168201806040525081019061047b9190610d33565b10156104bc576040517f08c379a00000000000000000000000000000000000000000000000000000000081526004016104b390610dd2565b60405180910390fd5b600060028054905011610504576040517f08c379a00000000000000000000000000000000000000000000000000000000081526004016104fb90610e3e565b60405180910390fd5b61051260055460065461066e565b90504260048190555090565b600160009054906101000a900473ffffffffffffffffffffffffffffffffffffffff1681565b7f000000000000000000000000000000000000000000000000000000000000000073ffffffffffffffffffffffffffffffffffffffff163373ffffffffffffffffffffffffffffffffffffffff16146105d2576040517f08c379a00000000000000000000000000000000000000000000000000000000081526004016105c990610eaa565b60405180910390fd5b6105dc82826107be565b5050565b6060600280548060200260200160405190810160405280929190818152602001828054801561066457602002820191906000526020600020905b8160009054906101000a900473ffffffffffffffffffffffffffffffffffffffff1673ffffffffffffffffffffffffffffffffffffffff168152602001906001019080831161061a575b5050505050905090565b60007f000000000000000000000000000000000000000000000000000000000000000073ffffffffffffffffffffffffffffffffffffffff16634000aea07f0000000000000000000000000000000000000000000000000000000000000000848660006040516020016106e2929190610eca565b6040516020818303038152906040526040518463ffffffff1660e01b815260040161070f93929190610f83565b6020604051808303816000875af115801561072e573d6000803e3d6000fd5b505050506040513d601f19601f820116820180604052508101906107529190610ff9565b50600061077484600030600080898152602001908152602001600020546108ce565b90506001600080868152602001908152602001600020546107959190611055565b600080868152602001908152602001600020819055506107b5848261090a565b91505092915050565b6000600280549050826107d191906110b8565b9050600281815481106107e7576107e66110e9565b5b9060005260206000200160009054906101000a900473ffffffffffffffffffffffffffffffffffffffff16600360006101000a81548173ffffffffffffffffffffffffffffffffffffffff021916908373ffffffffffffffffffffffffffffffffffffffff160217905550600360009054906101000a900473ffffffffffffffffffffffffffffffffffffffff1673ffffffffffffffffffffffffffffffffffffffff166108fc479081150290604051600060405180830381858888f193505050501580156108ba573d6000803e3d6000fd5b50600260006108c9919061093d565b505050565b6000848484846040516020016108e79493929190611118565b6040516020818303038152906040528051906020012060001c9050949350505050565b6000828260405160200161091f92919061119f565b60405160208183030381529060405280519060200120905092915050565b508054600082559060005260206000209081019061095b919061095e565b50565b5b8082111561097757600081600090555060010161095f565b5090565b6000819050919050565b61098e8161097b565b82525050565b60006020820190506109a96000830184610985565b92915050565b600073ffffffffffffffffffffffffffffffffffffffff82169050919050565b60006109da826109af565b9050919050565b6109ea816109cf565b82525050565b6000602082019050610a0560008301846109e1565b92915050565b600080fd5b610a198161097b565b8114610a2457600080fd5b50565b600081359050610a3681610a10565b92915050565b600060208284031215610a5257610a51610a0b565b5b6000610a6084828501610a27565b91505092915050565b6000819050919050565b610a7c81610a69565b82525050565b6000602082019050610a976000830184610a73565b92915050565b610aa681610a69565b8114610ab157600080fd5b50565b600081359050610ac381610a9d565b92915050565b60008060408385031215610ae057610adf610a0b565b5b6000610aee85828601610ab4565b9250506020610aff85828601610a27565b9150509250929050565b600081519050919050565b600082825260208201905092915050565b6000819050602082019050919050565b610b3e816109cf565b82525050565b6000610b508383610b35565b60208301905092915050565b6000602082019050919050565b6000610b7482610b09565b610b7e8185610b14565b9350610b8983610b25565b8060005b83811015610bba578151610ba18882610b44565b9750610bac83610b5c565b925050600181019050610b8d565b5085935050505092915050565b60006020820190508181036000830152610be18184610b69565b905092915050565b600082825260208201905092915050565b7f566f757320646576657a20656e766f796572206175206d6f696e7320302e303160008201527f20657468657220706f7572207061727469636970657200000000000000000000602082015250565b6000610c56603683610be9565b9150610c6182610bfa565b604082019050919050565b60006020820190508181036000830152610c8581610c49565b9050919050565b7f416363657320726566757365203a20566f7573206e276574657320706173206c60008201527f652070726f707269657461697265000000000000000000000000000000000000602082015250565b6000610ce8602e83610be9565b9150610cf382610c8c565b604082019050919050565b60006020820190508181036000830152610d1781610cdb565b9050919050565b600081519050610d2d81610a10565b92915050565b600060208284031215610d4957610d48610a0b565b5b6000610d5784828501610d1e565b91505092915050565b7f50617320617373657a206465204c494e4b20706f7572207574696c697365722060008201527f436861696e6c696e6b2056524600000000000000000000000000000000000000602082015250565b6000610dbc602d83610be9565b9150610dc782610d60565b604082019050919050565b60006020820190508181036000830152610deb81610daf565b9050919050565b7f417563756e207061727469636970616e742064616e73206c6520746972616765600082015250565b6000610e28602083610be9565b9150610e3382610df2565b602082019050919050565b60006020820190508181036000830152610e5781610e1b565b9050919050565b7f4f6e6c7920565246436f6f7264696e61746f722063616e2066756c66696c6c00600082015250565b6000610e94601f83610be9565b9150610e9f82610e5e565b602082019050919050565b60006020820190508181036000830152610ec381610e87565b9050919050565b6000604082019050610edf6000830185610a73565b610eec6020830184610985565b9392505050565b600081519050919050565b600082825260208201905092915050565b60005b83811015610f2d578082015181840152602081019050610f12565b60008484015250505050565b6000601f19601f8301169050919050565b6000610f5582610ef3565b610f5f8185610efe565b9350610f6f818560208601610f0f565b610f7881610f39565b840191505092915050565b6000606082019050610f9860008301866109e1565b610fa56020830185610985565b8181036040830152610fb78184610f4a565b9050949350505050565b60008115159050919050565b610fd681610fc1565b8114610fe157600080fd5b50565b600081519050610ff381610fcd565b92915050565b60006020828403121561100f5761100e610a0b565b5b600061101d84828501610fe4565b91505092915050565b7f4e487b7100000000000000000000000000000000000000000000000000000000600052601160045260246000fd5b60006110608261097b565b915061106b8361097b565b925082820190508082111561108357611082611026565b5b92915050565b7f4e487b7100000000000000000000000000000000000000000000000000000000600052601260045260246000fd5b60006110c38261097b565b91506110ce8361097b565b9250826110de576110dd611089565b5b828206905092915050565b7f4e487b7100000000000000000000000000000000000000000000000000000000600052603260045260246000fd5b600060808201905061112d6000830187610a73565b61113a6020830186610985565b61114760408301856109e1565b6111546060830184610985565b95945050505050565b6000819050919050565b61117861117382610a69565b61115d565b82525050565b6000819050919050565b6111996111948261097b565b61117e565b82525050565b60006111ab8285611167565b6020820191506111bb8284611188565b602082019150819050939250505056fea264697066735822122071e7cfe38ad9f60d68002fd1e2bd243dd4c6dfff58a09fd43990a9daa193670664736f6c634300081b0033",
  "linkReferences": {},
  "deployedLinkReferences": {}
}